:100000000C9462000C948A000C948A000C948A0070
:100010000C948A000C948A000C948A000C948A0038
:100020000C948A000C948A000C948A000C948A0028
:100030000C948A000C941A040C948A000C948A0084
:100040000C9478030C948A000C94E8030C94C2037B
:100050000C948A000C948A000C948A000C948A00F8
:100060000C948A000C948A000000000024002700F1
:100070002A0000000000250028002B0000000000DE
:1000800023002600290004040404040404040202DA
:100090000202020203030303030301020408102007
:1000A0004080010204081020010204081020000012
:1000B0000008000201000003040700000000000027
:1000C0000000AF0511241FBECFEFD8E0DEBFCDBFCB
:1000D00012E0A0E0B1E0E0E6FFE002C005900D9282
:1000E000A038B107D9F723E0A0E8B2E001C01D9223
:1000F000A333B207E1F710E0C2E6D0E004C02197D5
:10010000FE010E94A807C136D107C9F70E94EB047F
:100110000C94AE070C940000833081F028F48130F9
:1001200099F08230A9F008958730A9F08830C9F09D
:100130008430B1F4809180008F7D03C08091800075
:100140008F7780938000089584B58F7784BD08955C
:1001500084B58F7DFBCF8091B0008F778093B00006
:1001600008958091B0008F7DF9CFCF93DF93EAEBB4
:10017000F0E08491E6EAF0E0D491E2E9F0E0C491A5
:10018000CC23A1F081110E948C00EC2FF0E0EE0F47
:10019000FF1FE458FF4FA591B491EC91ED2381E04E
:1001A00090E009F480E0DF91CF91089580E090E045
:1001B000FACF1F93CF93DF93282F30E0F901E25558
:1001C000FF4F8491F901E656FF4FD491F901EA57A8
:1001D000FF4FC491CC23A9F0162F81110E948C00EF
:1001E000EC2FF0E0EE0FFF1FEE58FF4FA591B491FA
:1001F0008FB7F894EC91111108C0D095DE23DC93F1
:100200008FBFDF91CF911F910895DE2BF8CFCF9351
:10021000DF9390E0FC01E656FF4F24918A579F4FF1
:10022000FC0184918823D1F090E0880F991FFC0194
:10023000E859FF4FA591B491FC01EE58FF4FC591CD
:10024000D49161110EC09FB7F8948C91E22FE09584
:100250008E238C932881E223E8839FBFDF91CF9187
:1002600008958FB7F894EC91E22BEC938FBFF6CF03
:100270008E50806480937C0080917A0080648093AB
:100280007A0080917A0086FDFCCF80917800909171
:10029000790008953FB7F89480912F03909130032F
:1002A000A0913103B091320326B5A89B05C02F3F22
:1002B00019F00196A11DB11D3FBFBA2FA92F982F8C
:1002C0008827BC01CD01620F711D811D911D42E087
:1002D000660F771F881F991F4A95D1F708958F924F
:1002E0009F92AF92BF92CF92DF92EF92FF920E94C5
:1002F0004A014B015C0188ECC82ED12CE12CF12C79
:100300000E944A01681979098A099B09683E73406D
:1003100081059105A8F321E0C21AD108E108F1088E
:1003200088EE880E83E0981EA11CB11CC114D10474
:10033000E104F10429F7FF90EF90DF90CF90BF9098
:10034000AF909F908F900895AF92BF92CF92DF921F
:10035000EF92FF920F931F93CF93DF936C017B017A
:100360008B01040F151FEB015E01AE18BF08C0170B
:10037000D10759F06991D601ED91FC910190F0817E
:10038000E02DC6010995892B79F7C501DF91CF9141
:100390001F910F91FF90EF90DF90CF90BF90AF90A3
:1003A0000895FC01538D448D252F30E0842F90E07B
:1003B000821B930B541710F0CF9608950197089560
:1003C000FC01918D828D981761F0A28DAE0FBF2F29
:1003D000B11D5D968C91928D9F5F9F73928F90E07F
:1003E00008958FEF9FEF0895FC01918D828D9817EE
:1003F00031F0828DE80FF11D858D90E008958FEF2B
:100400009FEF0895FC01918D228D892F90E0805CF3
:100410009F4F821B91098F73992708958DE892E071
:100420000E94020221E0892B09F420E0822F089526
:1004300080E090E0892B29F00E940E0281110C943B
:1004400000000895FC01A48DA80FB92FB11DA35A77
:10045000BF4F2C91848D90E001968F739927848FE4
:10046000A689B7892C93A089B1898C918370806407
:100470008C93938D848D981306C00288F389E02DA8
:1004800080818F7D80830895EF92FF920F931F9359
:10049000CF93DF93EC0181E0888F9B8D8C8D981337
:1004A0001AC0E889F989808185FF15C09FB7F89443
:1004B000EE89FF896083E889F9898081837080648F
:1004C00080839FBF81E090E0DF91CF911F910F91DA
:1004D000FF90EF900895F62E0B8D10E00F5F1F4FE9
:1004E0000F731127E02E8C8D8E110CC00FB607FCF8
:1004F000FACFE889F989808185FFF5CFCE010E9486
:100500002202F1CFEB8DEC0FFD2FF11DE35AFF4FCF
:10051000F0829FB7F8940B8FEA89FB898081806213
:10052000CFCFCF93DF93EC01888D8823B9F0AA89D0
:10053000BB89E889F9898C9185FD03C0808186FD9E
:100540000DC00FB607FCF7CF8C9185FFF2CF8081ED
:1005500085FFEDCFCE010E942202E9CFDF91CF913E
:10056000089510928C0210928B0280E094E0909398
:1005700001018093000161E082E00E94D9008DECCE
:100580009CECACECBDE38093870290938802A0932F
:100590008902B0938A0282EA8093800081E080938E
:1005A0006F0010928B0010928A00109289001092B6
:1005B000880080910001909101018F33924094F561
:1005C00080918B0290918C02019690938C02809383
:1005D0008B0280918B0290918C020B9744F182E008
:1005E0008093800010926F0010928B0010928A000E
:1005F000109289001092880061E082E00E94D90088
:100600000E946F0160E082E00E94D9000E946F01A9
:100610000E94B500892B81F70E94B500892BE1F378
:100620000E94B10210928C0210928B02D2CF0E94D3
:10063000B500892BF1F40E94B500892BE1F360E04D
:1006400082E00E94D900C2E0C093800010926F0047
:1006500010928B0010928A001092890010928800EC
:100660000E94B500892B81F70E94B500892BE1F328
:10067000D7CF24EA30E74DE75FE3609187027091BE
:1006800088028091890290918A020E94360718168A
:100690000CF08FCF8091850290918602843691056F
:1006A0000CF087CF61E083E00E94D90082E0809364
:1006B000800010926F0010928B0010928A001092AE
:1006C00089001092880061E082E00E94D9000E94B7
:1006D0006F0160E082E00E94D9000E946F010E94D9
:1006E000B500892B81F70E94B500892BE1F398CFE3
:1006F0001F920F920FB60F9211242F933F938F9357
:100700009F93AF93BF9380912B0390912C03A09163
:100710002D03B0912E0330912A0323E0230F2D37B0
:1007200058F50196A11DB11D20932A0380932B0338
:1007300090932C03A0932D03B0932E0380912F034D
:1007400090913003A0913103B09132030196A11D25
:10075000B11D80932F0390933003A0933103B09386
:100760003203BF91AF919F918F913F912F910F9045
:100770000FBE0F901F90189526E8230F0296A11D1B
:10078000B11DD2CF1F920F920FB60F9211242F934B
:100790003F934F935F936F937F938F939F93AF9309
:1007A000BF93EF93FF938DE892E00E942202FF91A6
:1007B000EF91BF91AF919F918F917F916F915F91D9
:1007C0004F913F912F910F900FBE0F901F90189552
:1007D0001F920F920FB60F9211242F938F939F9316
:1007E000EF93FF93E0919D02F0919E028081E09152
:1007F000A302F091A40282FD1BC090818091A60209
:100800008F5F8F732091A702821741F0E091A602BB
:10081000F0E0E357FD4F958F8093A602FF91EF9193
:100820009F918F912F910F900FBE0F901F90189551
:100830008081F4CF1F920F920FB60F921124CF92A6
:10084000DF92EF92FF922F933F934F935F936F93BB
:100850007F938F939F93AF93BF93CF93DF93EF9348
:10086000FF938091830290918402803B91050CF468
:1008700041C080918202109284021092830291E022
:10088000892780938202811188C082E8809380004A
:100890008091850290918602C0908702D090880254
:1008A000E0908902F0908A02813022E092070CF4F5
:1008B00076C02DEC3CEC4CEC5DE3C701B6010E9428
:1008C0003607181684F42AE037ED43E25CE3C701EB
:1008D000B6010E94DC0560938702709388028093C2
:1008E000890290938A028EE00E9438019093010160
:1008F00080930001C0918302D0918402FE01EE0F2B
:10090000FF1FEE5FFE4F60817181072E000C880B88
:10091000990B0E94860620918702309188024091AF
:10092000890250918A020E943B070E944E067093F2
:100930008102609380022196D0938402C093830247
:1009400020918202211142C0709389006093880037
:1009500080918302909184028639910539F48FE069
:100960000E9438019093860280938502FF91EF9157
:10097000DF91CF91BF91AF919F918F917F916F91B7
:100980005F914F913F912F91FF90EF90DF90CF902B
:100990000F900FBE0F901F90189582E277CF8115B0
:1009A000924009F4A0CF24EA30E74DE75FE3C701A6
:1009B000B6010E94490687FF96CF2AE037ED43E251
:1009C0005CE3C701B6010E94DD0585CF70938B0003
:1009D00060938A00BDCF789484B5826084BD84B56D
:1009E000816084BD85B5826085BD85B5816085BD2A
:1009F00080916E00816080936E00109281008091E2
:100A00008100826080938100809181008160809369
:100A10008100809180008160809380008091B1008E
:100A200084608093B1008091B00081608093B000B9
:100A300080917A00846080937A0080917A0082604D
:100A400080937A0080917A00816080937A0080910F
:100A50007A00806880937A001092C100E0919D0234
:100A6000F0919E02C2E0C083E0919902F0919A0257
:100A70001082E0919B02F0919C028FEC8083109297
:100A8000A502E091A102F091A20286E08083E091AC
:100A90009F02F091A002808180618083E0919F029B
:100AA000F091A002808188608083E0919F02F091A4
:100AB000A002808180688083E0919F02F091A00273
:100AC00080818F7D808361E089E00E94070161E081
:100AD0008AE00E94070161E083E00E94070161E073
:100AE00082E00E94070160E08CE00E940701F89418
:100AF00010926F00C093800089E180938100109272
:100B000085001092840084E893E09093870080939E
:100B10008600109289001092880010928B0010922B
:100B20008A007894C0E0D0E00E94B500892B71F46F
:100B30000E94B500892BE1F34CE050E062E772E0DF
:100B40008DE892E00E94A4010E94B102209761F317
:100B50000E940E02882341F30E940000E5CFEDE8D9
:100B6000F2E01382128288EE93E0A0E0B0E084838A
:100B70009583A683B78384E692E09183808385EC96
:100B800090E09587848784EC90E09787868780EC57
:100B900090E0918B808B81EC90E0938B828B82EC48
:100BA00090E0958B848B86EC90E0978B868B118EF2
:100BB000128E138E148E08955058BB27AA270E94B8
:100BC000F4050C94FC060E94EE0638F00E94F5062F
:100BD00020F039F49F3F19F426F40C94EB060EF440
:100BE000E095E7FB0C94E506E92F0E940D0758F30A
:100BF000BA17620773078407950720F079F4A6F502
:100C00000C942F070EF4E0950B2EBA2FA02D0B019C
:100C1000B90190010C01CA01A0011124FF27591B41
:100C200099F0593F50F4503E68F11A16F040A22F47
:100C3000232F342F4427585FF3CF469537952795B8
:100C4000A795F0405395C9F77EF41F16BA0B620BB7
:100C5000730B840BBAF09150A1F0FF0FBB1F661FFE
:100C6000771F881FC2F70EC0BA0F621F731F841F41
:100C700048F4879577956795B795F7959E3F08F067
:100C8000B0CF9395880F08F09927EE0F9795879529
:100C900008950E94C10608F481E008950E94550657
:100CA0006894B1110C94300708950E94150788F0DC
:100CB0009F5798F0B92F9927B751B0F0E1F0660F20
:100CC000771F881F991F1AF0BA95C9F714C0B13061
:100CD00091F00E942F07B1E008950C942F07672F21
:100CE000782F8827B85F39F0B93FCCF38695779590
:100CF0006795B395D9F73EF4909580957095619579
:100D00007F4F8F4F9F4F0895E89409C097FB3EF4A3
:100D100090958095709561957F4F8F4F9F4F992348
:100D2000A9F0F92F96E9BB279395F69587957795C6
:100D30006795B795F111F8CFFAF4BB0F11F460FF86
:100D40001BC06F5F7F4F8F4F9F4F16C0882311F0DE
:100D500096E911C0772321F09EE8872F762F05C0F2
:100D6000662371F096E8862F70E060E02AF09A958D
:100D7000660F771F881FDAF7880F9695879597F982
:100D80000895990F0008550FAA0BE0E8FEEF16161C
:100D90001706E807F907C0F012161306E407F5076F
:100DA00098F0621B730B840B950B39F40A2661F0E3
:100DB000232B242B252B21F408950A2609F4A14086
:100DC000A6958FEF811D811D089597F99F6780E893
:100DD00070E060E008959FEF80EC089500240A948D
:100DE0001616170618060906089500240A94121606
:100DF0001306140605060895092E0394000C11F439
:100E0000882352F0BB0F40F4BF2B11F460FF04C0E5
:100E10006F5F7F4F8F4F9F4F089557FD9058440F3E
:100E2000551F59F05F3F71F04795880F97FB991F49
:100E300061F09F3F79F08795089512161306140606
:100E4000551FF2CF4695F1DF08C016161706180693
:100E5000991FF1CF86957105610508940895E8946E
:100E6000BB2766277727CB0197F908950E94C10613
:100E700008F48FEF08950E944E070C94FC060E9420
:100E8000EE0638F00E94F50620F0952311F00C9440
:100E9000E5060C94EB0611240C9430070E940D0714
:100EA00070F3959FC1F3950F50E0551F629FF001BD
:100EB000729FBB27F00DB11D639FAA27F00DB11DD6
:100EC000AA1F649F6627B00DA11D661F829F22275F
:100ED000B00DA11D621F739FB00DA11D621F839FE6
:100EE000A00D611D221F749F3327A00D611D231FBC
:100EF000849F600D211D822F762F6A2F11249F570A
:100F000050409AF0F1F088234AF0EE0FFF1FBB1F0C
:100F1000661F771F881F91505040A9F79E3F5105CB
:100F200080F00C94E5060C9430075F3FE4F3983EA4
:100F3000D4F3869577956795B795F795E7959F5F75
:100F4000C1F7FE2B880F911D9695879597F9089507
:100F5000EE0FFF1F0590F491E02D0994F894FFCF58
:100F6000000400001000200030004100510061002A
:100F7000710081009100A100B100C000D000E0002C
:100F8000EF00FF000E011E012D013C014B015A0133
:100F90006901780186019501A301B201C001CE016A
:100FA000DB01E901F701040211021E022B023702E4
:100FB000440250025C02680274027F028B029602B5
:100FC000A002AB02B502C002CA02D302DD02E602F1
:100FD000EF02F8020003090311031903200327039A
:100FE0002E0335033C03420348034D0353035803C8
:100FF0005D03610366036A036D0371037403770382
:101000007A037C037E0380038103820383038403CA
:1010100084038403840383038203810380037E03A8
:101020007C037A037703740371036D036A03660319
:1010300061035D03580353034D03480342033C031C
:1010400035032E03270320031903110309030003AB
:10105000F802EF02E602DD02D302CA02C002B502C4
:10106000AB02A00296028B027F02740268025C024D
:101070005002440237022B021E0211020402F70141
:10108000E901DB01CE01C001B201A3019501860196
:10109000780169015A014B013C012D011E010E012D
:1010A000FF00EF00E000D000C000B100A1009100FF
:1010B00081007100610051004100300020001000EB
:1010C000000000004402A401D10191020202E001EB
:1010D000F401427574746F6E207072657373000052
:00000001FF
